:020000040000fa
:080000000002040000000000f2
:020000040000fa
:100400002f862000aefe20000e01880000000000b4
:100410000c000700204c2000010020001100070004
:10042000000020000000e000020032000000020096
:10043000000000000c040200000000000040da0090
:100440000000fe004440a900000020000000e00081
:100450000300320000002000a00188004440a800f2
:100460000000060091018800800078000000eb0089
:1004700015003700e280400032a0b4009101ba00bc
:10048000e280400032a0b4009102ba00e280400055
:1004900032a0b4000002eb00472bde00f507b200eb
:1004a000602ce10004003a000059eb008301e900f0
:1004b000fdff3e00040037006128e100010032002a
:1004c0000082eb00040007001101ba000200e00006
:1004d000e8ff3a00000006003159ba008301e90044
:1004e0000c0032002159ba008301e90008003200f3
:1004f0000400e00003003a00e280400032a0b400b3
:10050000f5ff370011d9ba008301e900faff3a007c
:100510008100e800e180400032a0b4000000060045
:100520000040da000000fe0000a0fe00841f7800fa
:10053000851f7800881f78008a1f78004400f80023
:10054000080f200028028800000490001005900089
:10055000a000900030019000c00190000300ca008c
:100560000280ca000030cb001a00cd004604c30050
:100570000100ca004604c0001e04c0000605c000f9
:100580000100cd0021009800050d7800eaba97001f
:10059000052578004400f9004f0578004f047800e5
:1005a000cf0278004f0278000080fe0000000600b5
:1005b000801f78004000b0000008eb004f0078007a
:1005c000801f7800100090000018eb000018eb006e
:0c05d0000008eb004f007800000006005f
:020000040000fa
:0200000401f009
:04000c00f8ff0000f9
:020000040000fa
:0200000401f009
:040010007bff000072
:020000040000fa
:0200000401f009
:040014007fff00006a
:020000040000fa
:0200000401f009
:04001800ffff0000e6
:020000040000fa
:0200000401f009
:04001c00deff000003
:020000040000fa
:1000080090020000900200009002000090020000a0
:100018009002000090020000900200009002000090
:10002800900200009002000090020000de04000030
:100038009002000090020000900200009002000070
:100048009002000090020000900200009002000060
:100058009002000090020000900200009002000050
:100068009002000090020000900200009002000040
:100078009002000090020000900200009002000030
:100088009002000090020000900200009002000020
:100098009002000090020000900200009002000010
:1000a8009002000090020000900200009002000000
:1000b80090020000900200009002000090020000f0
:1000c80090020000900200009002000090020000e0
:1000d80090020000900200009002000090020000d0
:1000e80090020000900200009002000090020000c0
:1000f80090020000900200009002000090020000b0
:10010800900200009002000090020000900200009f
:10011800900200009002000090020000900200008f
:10012800900200009002000090020000900200007f
:10013800900200009002000090020000900200006f
:10014800900200009002000090020000900200005f
:10015800900200009002000090020000900200004f
:10016800900200009002000090020000900200003f
:10017800900200009002000090020000900200002f
:10018800900200009002000090020000900200001f
:10019800900200009002000090020000900200000f
:1001a80090020000900200009002000090020000ff
:1001b80090020000900200009002000090020000ef
:1001c80090020000900200009002000090020000df
:1001d80090020000900200009404000090020000c9
:1001e80090020000900200009002000090020000bf
:0801f8009002000090020000db
:020000040000fa
:10020800900200009002000090020000900200009e
:10021800900200009002000090020000900200008e
:10022800900200009002000090020000de0400002e
:10023800900200009002000090020000900200006e
:10024800900200009002000090020000900200005e
:10025800900200009002000090020000900200004e
:10026800900200009002000090020000900200003e
:10027800900200009002000090020000900200002e
:10028800900200009002000090020000900200001e
:10029800900200009002000090020000900200000e
:1002a80090020000900200009002000090020000fe
:1002b80090020000900200009002000090020000ee
:1002c80090020000900200009002000090020000de
:1002d80090020000900200009002000090020000ce
:1002e80090020000900200009002000090020000be
:1002f80090020000900200009002000090020000ae
:10030800900200009002000090020000900200009d
:10031800900200009002000090020000900200008d
:10032800900200009002000090020000900200007d
:10033800900200009002000090020000900200006d
:10034800900200009002000090020000900200005d
:10035800900200009002000090020000900200004d
:10036800900200009002000090020000900200003d
:10037800900200009002000090020000900200002d
:10038800900200009002000090020000900200001d
:10039800900200009002000090020000900200000d
:1003a80090020000900200009002000090020000fd
:1003b80090020000900200009002000090020000ed
:1003c80090020000900200009002000090020000dd
:1003d80090020000900200009404000090020000c7
:1003e80090020000900200009002000090020000bd
:0803f8009002000090020000d9
:020000040000fa
:1005dc000000fa00409620002020880023e4a800a8
:1005ec0023c4a800314220009140780030cfb300e2
:1005fc0000c0600023e4b70023a4a9002384a90051
:10060c002324a9002304a90022c4bf00f043b20094
:10061c0022e4b70020c4bf00f043b20020e4b700ce
:10062c0080012000502188000003200060218800f8
:10063c002004a9002124a90024c4bf003040b30029
:10064c0024e4b70035c4bf006f40600035e4b70048
:10065c00414320009140780000ccb30000c0600002
:10066c0034e4b70080042000302188008000200092
:10067c00902188000080fa00000006000000fa00bb
:10068c000103a90000e3a90000c3a90000a3a9006d
:10069c00013020009140780080cfb30000c0600092
:1006ac005040b30000e3b70091c0a900b10d200089
:1006bc009140780080cfb30000c060005040b30080
:1006cc00dbe0b700a1c0a8000203a9000223a90027
:1006dc000283a9000603a9000ae3a800a1302000a8
:1006ec009140780000ceb30000c060000024a00050
:1006fc000ae3b7000643a9000ce3a900c1302000af
:10070c009140780000ceb30000c060000024a0002f
:10071c000ce3b7000080fa00000006000000fa00ad
:10072c0000852000b0428800a0ff2000c042880055
:10073c00608520009bff0700b142800050da210049
:10074c0080087800b04280008080e800f0282e00fd
:10075c0080087800b0428000e40040000000eb000c
:10076c008008780000902000f04288000000eb0028
:10077c00e04288000080fa00000006000000fa0049
:10078c0005003700000420000b000700f042800039
:10079c00301cb000f0428800f142800000122600ac
:1007ac00808f5000f7ff340000122600f0428800c2
:1007bc000080fa00000006000200fa00000f78002a
:1007cc000000eb000043880000c4290010088800da
:1007dc00510a200091407800f0c8b30000c06000be
:1007ec0001c4b30001407000a5e0b7009460a800fc
:1007fc0005e1a800004380009e0f5000fdff39006a
:10080c0005e1a9000080fa00000006000200fa00d1
:10081c0090022000303a880044c7bf00f043b20079
:10082c0044e7b700417420009140780000ceb3003b
:10083c0000c0600044e7b7001200200081072000d0
:10084c00a009200033742000814978008049780089
:10085c0082497800120020006104200070052000fd
:10086c0023742000814978008049780082497800ff
:10087c0043c7bf000047b200f04f5000fcff3a00e6
:10088c0042c7bf000042b2000004e000fcff32008f
:10089c0050c7a80051a7a80051c7bf007040b300b3
:1008ac0051e7b70051e7a80051c7bf000044b200a0
:1008bc000004e000fcff320045ff07006fff07005b
:1008cc0096ff070001e3a80001e4a800abff0700b6
:1008dc00c982a900cd82a9000000370006c3bf0061
:1008ec00644060000004e000030032004019800006
:1008fc00000f78000643a900701820009e0f10000e
:10090c0003003400603420009e0f1000f3ff34000d
:10091c002324a8002304a800f0ff3700801f7800d0
:10092c00811f78006085200011198000c508dd004a
:10093c00310098009402020000000000a00090001a
:10094c004488de00810420000100e60001007800ec
:10095c00817e20000180e6000100780030218800b3
:10096c00902188000603a90091c0a900cf0078004f
:08097c004f0078000040060066
:020000040000fa
:10098400560800000a0000000000000050080000a3
:100994000600000000000000fa0f0000060000003e
:1009a40000000000600800000200000002000000d7
:0809b40000000000000000003b
:020000040000fa
:1009bc00801f78000000fa00004380000000e8006f
:1009cc00004388008460a9000080fa004f00780082
:0409dc0000400600d1
:00000001FF
